:020000040800F2
:1000000000000520BD190008D9180008DB180008F9
:10001000DD180008DF180008E118000800000000E3
:10002000000000000000000000000000617B0008EC
:10003000E318000800000000017C0008657C00084F
:100040000D1A00080D1A00080D1A00080D1A0008F4
:100050000D1A00080D1A00080D1A00080D1A0008E4
:100060000D1A00080D1A00080D1A00080D1A0008D4
:100070000D1A00080D1A00080D1A00080D1A0008C4
:100080000D1A00080D1A00080D1A00080D1A0008B4
:100090000D1A00080D1A00080D1A00080D1A0008A4
:1000A0000D1A00080D1A00080D1A00080D1A000894
:1000B0000D1A00080D1A00080D1A00080D1A000884
:1000C0000D1A00080D1A00080D1A00080D1A000874
:1000D0000D1A00080D1A00080D1A00080D1A000864
:1000E0000D1A00080D1A00080D1A00080D1A000854
:1000F0000D1A00080D1A00080D1A00080D1A000844
:100100000D1A00080D1A00080D1A00080D1A000833
:100110000D1A00080D1A0008E51800080D1A00084D
:100120000D1A00080D1A00080D1A00080D1A000813
:100130000D1A00080D1A00080D1A00080D1A000803
:100140000D1A00080D1A00080D1A00080D1A0008F3
:100150000D1A00080D1A00080D1A00080D1A0008E3
:100160000D1A00080D1A00080D1A00080D1A0008D3
:100170000D1A00080D1A00080D1A000800000000F2
:100180000D1A00080D1A00080D1A00080D1A0008B3
:100190000D1A00080D1A00080D1A00080D1A0008A3
:1001A000F11800080D1A0008FD1800080D1A0008C3
:1001B0000D1A00080D1A00080D1A00080D1A000883
:0801C0000D1A00080D1A0008D9
:1001D00010B5054C237833B9044B13B10448AFF381
:1001E00000800123237010BD2401002000000000C6
:1001F000C4AC020808B5034B1BB103490348AFF375
:10020000008008BD0000000028010020C4AC0208E6
:1002100001F0FF01102A2BDB10F0070F08D010F8B7
:10022000013B013A8B422DD010F0070F42B3F6D1BB
:10023000F0B441EA012141EA014122F007047FF0D4
:1002400000070023F0E80256083C85EA010586EA2B
:10025000010685FA47F5A3FA87F586FA47F6A5FA67
:1002600087F68EB9EED1F0BC01F0FF0102F0070273
:1002700032B110F8013B013A83EA010313B1F8D11E
:100280000020704701387047002D06BF35460338FF
:10029000073815F0010F07D1013015F4807F02BF38
:1002A000013015F4C03F0130F0BC0138704700BF89
:1002B00081F0004102E000BF83F0004330B54FEA17
:1002C00041044FEA430594EA050F08BF90EA020F84
:1002D0001FBF54EA000C55EA020C7FEA645C7FEA17
:1002E000655C00F0E2804FEA5454D4EB5555B8BF3A
:1002F0006D420CDD2C4480EA020281EA030382EAAB
:10030000000083EA010180EA020281EA0303362D3C
:1003100088BF30BD11F0004F4FEA01314FF4801C0F
:100320004CEA113102D0404261EB410113F0004F21
:100330004FEA03334CEA133302D0524263EB4303D8
:1003400094EA050F00F0A780A4F10104D5F1200E76
:100350000DDB02FA0EFC22FA05F2801841F10001D1
:1003600003FA0EF2801843FA05F359410EE0A5F1A5
:1003700020050EF1200E012A03FA0EFC28BF4CF0D6
:10038000020C43FA05F3C01851EBE37101F000458C
:1003900007D54FF0000EDCF1000C7EEB00006EEB99
:1003A0000101B1F5801F1BD3B1F5001F0CD3490823
:1003B0005FEA30004FEA3C0C04F101044FEA44527A
:1003C00012F5800F80F09A80BCF1004F08BF5FEA01
:1003D000500C50F1000041EB045141EA050130BDE1
:1003E0005FEA4C0C404141EB0101013C28BFB1F5F3
:1003F000801FE9D291F0000F04BF01460020B1FA3E
:1004000081F308BF2033A3F10B03B3F120020CDA10
:100410000C3208DD02F1140CC2F10C0201FA0CF0EE
:1004200021FA02F10CE002F11402D8BFC2F1200C53
:1004300001FA02F120FA0CFCDCBF41EA0C01904009
:10044000E41AA2BF01EB0451294330BD6FEA040452
:100450001F3C1CDA0C340EDC04F11404C4F120023D
:1004600020FA04F001FA02F340EA030021FA04F34F
:1004700045EA030130BDC4F10C04C4F1200220FAA6
:1004800002F001FA04F340EA0300294630BD21FAE4
:1004900004F0294630BD94F0000F83F4801306BFAA
:1004A00081F480110134013D4EE77FEA645C18BF9E
:1004B0007FEA655C29D094EA050F08BF90EA020F35
:1004C00005D054EA000C04BF1946104630BD91EA2D
:1004D000030F1EBF0021002030BD5FEA545C05D130
:1004E0004000494128BF41F0004130BD14F580046F
:1004F0003CBF01F5801130BD01F0004545F0FE41E3
:1005000041F470014FF0000030BD7FEA645C1ABF17
:10051000194610467FEA655C1CBF0B46024650EA4E
:10052000013406BF52EA033591EA030F41F400217A
:1005300030BD00BF90F0000F04BF0021704730B500
:100540004FF4806404F132044FF000054FF00001D5
:1005500050E700BF90F0000F04BF0021704730B596
:100560004FF4806404F1320410F0004548BF40426B
:100570004FF000013EE700BF42004FEAE2014FEAC0
:1005800031014FEA02701FBF12F07F4393F07F4F9B
:1005900081F06051704732F07F4208BF704793F09E
:1005A0007F4F04BF41F40021704730B54FF46074B1
:1005B00001F0004521F000411CE700BF50EA0102B4
:1005C00008BF704730B54FF000050AE050EA01025D
:1005D00008BF704730B511F0004502D5404261EBCD
:1005E00041014FF4806404F132045FEA915C3FF40E
:1005F000D8AE4FF003025FEADC0C18BF03325FEAAB
:10060000DC0C18BF033202EBDC02C2F1200300FA5B
:1006100003FC20FA02F001FA03FE40EA0E0021FA80
:1006200002F11444BDE600BF70B54FF0FF0C4CF46E
:10063000E06C1CEA11541DBF1CEA135594EA0C0F20
:1006400095EA0C0F00F0DEF82C4481EA030621EA5B
:100650004C5123EA4C5350EA013518BF52EA033596
:1006600041F4801143F4801338D0A0FB02CE4FF048
:100670000005E1FB02E506F00042E0FB03E54FF078
:100680000006E1FB03569CF0000F18BF4EF0010E70
:10069000A4F1FF04B6F5007F64F5407404D25FEA6C
:1006A0004E0E6D4146EB060642EAC62141EA55511F
:1006B0004FEAC52040EA5E504FEACE2EB4F1FD0C61
:1006C00088BFBCF5E06F1ED8BEF1004F08BF5FEADF
:1006D000500E50F1000041EB045170BD06F0004691
:1006E00046EA010140EA020081EA0301B4EB5C043E
:1006F000C2BFD4EB0C0541EA045170BD41F4801136
:100700004FF0000E013C00F3AB8014F1360FDEBF5A
:10071000002001F0004170BDC4F10004203C35DA36
:100720000C341BDC04F11404C4F1200500FA05F3B9
:1007300020FA04F001FA05F240EA020001F000425A
:1007400021F0004110EBD37021FA04F642EB0601D0
:100750005EEA430E08BF20EAD37070BDC4F10C04FA
:10076000C4F1200500FA04F320FA05F001FA04F2BE
:1007700040EA020001F0004110EBD37041F10001AA
:100780005EEA430E08BF20EAD37070BDC4F12005B5
:1007900000FA05F24EEA020E20FA04F301FA05F21D
:1007A00043EA020321FA04F001F0004121FA04F2C5
:1007B00020EA020000EBD3705EEA430E08BF20EA95
:1007C000D37070BD94F0000F0FD101F000464000CF
:1007D00041EB010111F4801F08BF013CF7D041EA51
:1007E000060195F0000F18BF704703F00046520055
:1007F00043EB030313F4801F08BF013DF7D043EA26
:100800000603704794EA0C0F0CEA135518BF95EADB
:100810000C0F0CD050EA410618BF52EA4306D1D162
:1008200081EA030101F000414FF0000070BD50EA81
:10083000410606BF1046194652EA430619D094EA0B
:100840000C0F02D150EA013613D195EA0C0F05D1F5
:1008500052EA03361CBF104619460AD181EA030149
:1008600001F0004141F0FE4141F470014FF0000001
:1008700070BD41F0FE4141F4780170BD70B54FF09C
:10088000FF0C4CF4E06C1CEA11541DBF1CEA13551C
:1008900094EA0C0F95EA0C0F00F0A7F8A4EB0504FE
:1008A00081EA030E52EA03354FEA013100F08880F5
:1008B0004FEA03334FF0805545EA131343EA1263BE
:1008C0004FEA022245EA111545EA10654FEA002673
:1008D0000EF000419D4208BF964244F1FD0404F52C
:1008E000407402D25B084FEA3202B61A65EB030588
:1008F0005B084FEA32024FF480104FF4002CB6EB45
:10090000020E75EB030E22BFB61A754640EA0C00C4
:100910005B084FEA3202B6EB020E75EB030E22BF04
:10092000B61A754640EA5C005B084FEA3202B6EB45
:10093000020E75EB030E22BFB61A754640EA9C0004
:100940005B084FEA3202B6EB020E75EB030E22BFD4
:10095000B61A754640EADC0055EA060E18D04FEA92
:10096000051545EA16754FEA06164FEAC30343EA32
:1009700052734FEAC2025FEA1C1CC0D111F4801FFF
:100980000BD141EA00014FF000004FF0004CB6E7F8
:1009900011F4801F04BF01430020B4F1FD0C88BF97
:1009A000BCF5E06F3FF6AFAEB5EB030C04BFB6EBA2
:1009B000020C5FEA500C50F1000041EB045170BD95
:1009C0000EF0004E4EEA113114EB5C04C2BFD4EBC2
:1009D0000C0541EA045170BD41F480114FF0000E46
:1009E000013C90E645EA060E8DE60CEA135594EAC2
:1009F0000C0F08BF95EA0C0F3FF43BAF94EA0C0FC5
:100A00000AD150EA01347FF434AF95EA0C0F7FF439
:100A100025AF104619462CE795EA0C0F06D152EA8D
:100A200003353FF4FDAE1046194622E750EA410671
:100A300018BF52EA43067FF4C5AE50EA41047FF482
:100A40000DAF52EA43057FF4EBAE12E74FEA4102E5
:100A5000B2F1E04324BFB3F5001CDCF1FE5C0DD91C
:100A600001F0004C4FEAC0024CEA5070B2F1004F66
:100A700040EB830008BF20F00100704711F0804F69
:100A800021D113F13872BCBF01F00040704741F42E
:100A900080114FEA5252C2F11802C2F1200C10FA32
:100AA0000CF320FA02F018BF40F001004FEAC12316
:100AB0004FEAD32303FA0CFC40EA0C0023FA02F3BA
:100AC0004FEA4303CCE77FEA625307D150EA013390
:100AD0001EBF4FF0FE4040F44000704701F0004060
:100AE00040F0FE4040F40000704700BF53B94AB9DF
:100AF000002908BF00281CBF4FF0FF314FF0FF3026
:100B000000F074B9ADF1080C6DE904CE00F006F800
:100B1000DDF804E0DDE9022304B070472DE9F04779
:100B2000089D04468E46002B4DD18A42944669D9D1
:100B3000B2FA82F252B101FA02F3C2F1200120FAB4
:100B400001F10CFA02FC41EA030E94404FEA1C4802
:100B5000210CBEFBF8F61FFA8CF708FB16E341EAFE
:100B6000034306FB07F199420AD91CEB030306F184
:100B7000FF3080F01F81994240F21C81023E6344A5
:100B80005B1AA4B2B3FBF8F008FB103344EA034449
:100B900000FB07F7A7420AD91CEB040400F1FF335E
:100BA00080F00A81A74240F207816444023840EA9B
:100BB0000640E41B00261DB1D4400023C5E90043D4
:100BC0003146BDE8F0878B4209D9002D00F0EF8057
:100BD0000026C5E9000130463146BDE8F087B3FA8A
:100BE00083F6002E4AD18B4202D3824200F2F98072
:100BF000841A61EB030301209E46002DE0D0C5E975
:100C0000004EDDE702B9FFDEB2FA82F2002A40F0C0
:100C10009280A1EB0C014FEA1C471FFA8CFE0126C3
:100C2000200CB1FBF7F307FB131140EA01410EFB67
:100C300003F0884208D91CEB010103F1FF3802D20E
:100C4000884200F2CB804346091AA4B2B1FBF7F008
:100C500007FB101144EA01440EFB00FEA64508D92B
:100C60001CEB040400F1FF3102D2A64500F2BB8068
:100C70000846A4EB0E0440EA03409CE7C6F12007B7
:100C8000B34022FA07FC4CEA030C20FA07F401FAFD
:100C900006F31C43F9404FEA1C4900FA06F3B1FB86
:100CA000F9F8200C1FFA8CFE09FB181140EA0141EB
:100CB00008FB0EF0884202FA06F20BD91CEB010188
:100CC00008F1FF3A80F08880884240F28580A8F1E0
:100CD00002086144091AA4B2B1FBF9F009FB101132
:100CE00044EA014100FB0EFE8E4508D91CEB0101D0
:100CF00000F1FF346CD28E456AD90238614440EA73
:100D00000840A0FB0294A1EB0E01A142C846A646F2
:100D100056D353D05DB1B3EB080261EB0E0101FA7B
:100D200007F722FA06F3F1401F43C5E900710026D8
:100D30003146BDE8F087C2F12003D8400CFA02FC2E
:100D400021FA03F3914001434FEA1C471FFA8CFE3E
:100D5000B3FBF7F007FB10360B0C43EA064300FB2E
:100D60000EF69E4204FA02F408D91CEB030300F1CC
:100D7000FF382FD29E422DD9023863449B1B89B283
:100D8000B3FBF7F607FB163341EA034106FB0EF30C
:100D90008B4208D91CEB010106F1FF3816D28B42B9
:100DA00014D9023E6144C91A46EA004638E72E4685
:100DB000284605E70646E3E61846F8E64B45A9D27D
:100DC000B9EB020864EB0C0E0138A3E74646EAE7EC
:100DD000204694E74046D1E7D0467BE7023B61449A
:100DE00032E7304609E76444023842E7704700BF03
:100DF0000149002008F0C8B8BD1E000808B56420ED
:100E000006F0C2FAFBE7000010B594B010220021F2
:100E100002240AA828F056FD1422002103A828F075
:100E200051FD1D4B192108A81A6C42F080521A641A
:100E30001B6C03F080530193019B184B1A6842F41A
:100E400040421A6001221B6803F440430293029B54
:100E50004FF48033CDE908234FF48003CDE90E43EE
:100E60004FF4D873CDE91244CDE9101305F04AFAD6
:100E700004F0F6FE0F2300200721CDE903344FF4E0
:100E8000A053CDE905034FF4805303A8079305F061
:100E900025FC14B010BD00BF0038024000700040B7
:100EA0002DE980489BB01022002101250DA84FF0AC
:100EB000104928F007FD002403F026FEC74B0DA8BB
:100EC000ADF834501094CDE90E9303F03BFE172398
:100ED0000DA88DF835508DF83C308DF8425003F058
:100EE00031FE042003F01EFEBFF34F8FBFF36F8F60
:100EF000BB4AC2F85042BFF34F8FBFF36F8F5369A5
:100F000043F400335361BFF34F8FBFF36F8FC2F8C9
:100F10008440BFF34F8FD2F8803043F6E074C3F3C0
:100F2000C900C3F34E335B0103EA0406014646EAF7
:100F300081750139C2F86052F9D2203B13F1200FBC
:100F4000F2D1BFF34F8F536943F480335361BFF342
:100F50004F8FBFF36F8F03F03BFD0024FFF754FF6B
:100F6000142200210DA828F0ADFC9E4B10219E48B4
:100F70001A6B01274FF010084FF0030B42F01002DC
:100F80004FF4805A994D4FF004091A631A6B984E2A
:100F900002F010020292029A1A6B42F002021A63E5
:100FA0001A6B02F002020392039A1A6B42F00102DA
:100FB0001A631A6B02F001020492049A1A6B42F04F
:100FC00040021A631A6B02F040020592059A1A6BEE
:100FD00042F400721A631A6B02F400720692069AC7
:100FE0001A6B42F008021A631A6B02F008020792A9
:100FF000079A1A6B42F480621A631A6B02F48062D9
:101000000892089A1A6B42F020021A631A6B02F0D7
:1010100020020992099A1A6B42F480721A631A6BC1
:1010200002F480720A920A9A1A6B42F080021A63E2
:101030001A6B02F080020B920B9A1A6B42F00402B8
:101040001A6300221B6B03F004030C930C9B04F047
:10105000D3F801220821674804F0CEF801224FF4AA
:101060008051654804F0C8F80022C021634804F0AC
:10107000C3F800224021624804F0BEF80DA95A4886
:10108000CDE90D87CDE90F4B03F02AFF08230DA909
:101090005848CDE90D37CDE90F4403F021FF0DA9E4
:1010A0005548CDE90DA7CDE90F4403F019FFC02243
:1010B0000DA95248CDE90D27CDE90F4B03F010FFE4
:1010C00040220DA94E48CDE90D27CDE90F4B03F085
:1010D00007FF4C484C49848001600762C0E9054421
:1010E00003F05CFD49492846C5E90A44C5E90C44BA
:1010F000C5E90014C5E9024403F0F2FD394628466B
:10110000434D03F0A5FE40234FF4C07241493046E1
:10111000B460F461B462C6E905324FF40062C6E916
:10112000082A4FF0020A0722C6E900140DA9CDF8DB
:101130004CA0C6E90398CDE90DA2CDE90F92CDE907
:1011400011BA05F021FE29464FF6FF723046019490
:10115000C5E90078C5E9027405F036FE384603F0AB
:101160005BFC29464FF6FF723046C5E900A8C5E989
:10117000027405F029FE082329464FF6FF72304617
:10118000C5E900B8C5E9023405F01EFE4FF40C7342
:101190004FF6FF72294601933046019BAF60EB602A
:1011A000C5E9009805F010FE40F22B7130461A4D4B
:1011B00005F029FE4FF0204343F2D202642040F2B2
:1011C00015261A6003F028FC144B154A28462C6299
:1011D000C5E90023C5E9024724E000BF1B00000366
:1011E00000ED00E000380240000402407C010020D5
:1011F00004030020002802400020024000080240B2
:1012000000180240580100200030024000B00240A7
:1012100040010020400100A0BC01002068474020A0
:10122000005C0040C5E90444C5E9064404F00DF93A
:101230002146284604F02CFB214628463E4D04F06A
:101240004DFB342221460DEB020028F03BFB3B4BCB
:101250002821352040F2352CAC862C6185F83640AB
:10126000C5E900340923C5E905130B23C5E90703C4
:1012700040F21B132846C5E9096340F21D13C5E976
:101280000244C5E90BC304F0D5FBFF214FF4806E87
:101290004FF4F0724FF4887328460D941893ADF80C
:1012A00064408DF86640CDE912140521CDE914E1C2
:1012B0004FF04041CDE90E24CDE9161222460DA98A
:1012C000CDE9103A04F081FC1D481E4B0462C0E9D0
:1012D0000037C0E902984FF4A0634FF01808C0E946
:1012E0000644C0E9048304F0CBFD03F0EFF903F0FA
:1012F00033F95C2003F0F4FB00F05EFB00F088FBA8
:1013000000F085FB05F0B0FF0F4A21460F4805F0BD
:10131000E5FF0F4B0F4A214618600F4805F0DEFF2E
:101320000E4B0F4A214618600E4805F0D7FF0E4BB2
:10133000186005F0B3FFFEE71002002000680140CE
:10134000B8020020001000A068AD0208FD0D0008E2
:101350005401002044AD02081F1A0008500100206B
:101360008CAD0208A9320008380300200268034B44
:101370009A4201D103F03EBB704700BF001000400D
:10138000704700000D4B82B00F216FF001001A6C06
:1013900042F080521A641A6C02F080520092009A55
:1013A0005A6C42F480425A6400225B6C03F480431E
:1013B0000193019B02B003F053BB00BF0038024011
:1013C000026882B0084B9A420BD1D3F8302803F55B
:1013D000006342F480521A631B6B03F48053019341
:1013E000019B02B0704700BF003002400E4B07B5B2
:1013F00002689A4215D1A3F5F04305215A201A6BD1
:1014000042F400021A6300221B6B03F400030193F1
:10141000019B03F025FB5A2003B05DF804EB03F0B9
:1014200051BB03B05DF804FB00B0024010B5A8B09A
:1014300004461422002102A828F044FA8422002144
:1014400007A828F03FFA2268174B9A422AD14FF496
:10145000803307A8079305F00FFA08B1FFF790FF54
:10146000124C4FF4C07201211148236B43F08003EA
:101470002363236B03F080030093009B1223CDE9C9
:1014800002230323CDE90413042302A9069303F0E6
:1014900027FD236C43F400032364236C03F400034F
:1014A0000193019B28B010BD005C00400038024051
:1014B000001C0240026808B5094B9A420FD1094A44
:1014C00080210948136C23F40003136403F0ECFD3E
:1014D0004FF480710448BDE8084003F0E5BD08BD45
:1014E000005C004000380240001C024070B5ACB007
:1014F00004461422002106A828F0E4F984220021E1
:101500000BA828F0DFF92268484B9A4240F08C8003
:101510000823052001240B934FF4C073109302237A
:10152000CDE911304FF400330BA8CDE9154305F098
:10153000A3F908B1FFF724FF3D4B002402250E2636
:101540005A6C06A93B4842F080625A645A6C02F019
:1015500080620092009A1A6B42F010021A631A6BB2
:1015600002F010020192019A1A6B42F400721A639F
:101570001A6B02F400720292029A1A6B42F48062B1
:101580001A631A6B02F480620392039A1A6B42F098
:1015900040021A631A6B02F040020492049A1A6B1A
:1015A00042F480721A631B6B03F480730593059BEE
:1015B0001023CDE90635CDE908440A9603F090FCE6
:1015C0004EF6FF7306A91C480A96CDE90635CDE90B
:1015D000084403F085FCF72306A918480A96CDE9CC
:1015E0000635CDE9084403F07BFC4FF4805306A98F
:1015F0001348CDE906350923CDE908440A9303F0E1
:101600006FFC4FF4464306A90E480A96CDE906350D
:10161000CDE9084403F064FC58202246052103F07C
:101620001FFA582003F04EFA2CB070BD006801403C
:10163000003802400010024000240240002802400E
:101640000018024000200240142200212DE9F04140
:101650008AB004460DEB020028F034F922682C4BC6
:101660009A4251D12B4B0225032409269A6B4FF045
:10167000040805A9284842F0020200279A639A6BE1
:1016800002F002020192019A1A6B42F010021A63F0
:101690001A6B02F010020292029A1A6B42F00202D6
:1016A0001A631A6B02F002020392039A1A6B42F059
:1016B00008021A631B6B03F008030493049BCDE933
:1016C0000585CDE9084603F00BFC402305A9134826
:1016D000CDE905350A23CDE90774099303F000FC31
:1016E00005A90E480996CDE90585CDE9077403F0F3
:1016F000F7FB4FF4605305A909480996CDE9053574
:10170000CDE9077403F0ECFB0AB0BDE8F08100BF3F
:10171000001000A000380240001002400004024007
:10172000000C0240026808B50B4B9A4213D10B4AD9
:1017300004210B48936B23F00203936303F0B4FC82
:101740004421084803F0B0FC4FF460510648BDE85E
:10175000084003F0A9BC08BD001000A000380240FA
:101760000010024000040240000C0240F0B50023CB
:1017700087B00393294B1E68002E4DD1012202270A
:1017800003250C241A6001A9254B26489A6B42F0C8
:1017900001029A639B6B03F001030093009B4FF6D9
:1017A0008373CDE90454CDE9013703F099FB48F286
:1017B000331301A91C480594CDE90137CDE9036530
:1017C00003F08EFB4CF2037301A918480594CDE990
:1017D0000137CDE9036503F083FB4FF63F0301A911
:1017E00013480594CDE90137CDE9036503F078FB93
:1017F000282301A90F480594CDE90137CDE90365F8
:1018000003F06EFB082301A90B480594CDE90137CD
:10181000CDE9036503F064FB07B0F0BD3C03002095
:10182000003802400010024000180240000C024044
:1018300000140240001C024000080240214B1A6CB8
:1018400042F0100270B51A6488B01B6C054601A9FD
:1018500003A803F010030293029B04F0EFFF069B22
:101860004BBB04F0DBFF184E184B336040F2E733FC
:10187000F360174BB0FBF3F3013B3046736000237A
:101880003361B360B36105F02FFC044680B9304684
:1018900005F0D2FA044658B9362003F013F90F2D9B
:1018A0000DD822462946362003F0DAF8094B1D6090
:1018B000204608B070BD04F0B1FF4000D3E701241A
:1018C000F6E700BF0038024040030020001000404F
:1018D00040420F003C0000207047FEE7FEE7FEE7B5
:1018E000FEE77047014805F0E9BA00BF4003002059
:1018F000014804F00DB900BF10020020014803F0B8
:101900001DBA00BF7C0100200120704708B527F0F8
:101910007BFF162303604FF0FF3008BD08B527F0AA
:1019200073FF16230360FEE770B50D4614460E469E
:10193000731B9C4201DC204670BDAFF3008006F8AB
:10194000010BF5E770B50D4614460E46731B9C421D
:1019500001DC204670BD16F8010BAFF30080F5E7FF
:101960004FF0FF3070474FF4005300204B6070473A
:1019700001207047002070470B4A0346116810B5DC
:1019800009B90A491160106809490A4C0344091B46
:101990008B4206D927F038FF0C2303604FF0FF304D
:1019A00010BD1360FCE700BF8C030020B854012079
:1019B00000000520000A000070470000DFF834D066
:1019C000002103E00C4B5B58435004310B480C4B97
:1019D00042189A42F6D30B4A02E0002342F8043B35
:1019E000094B9A42F9D302F009FF27F025FFFFF7D0
:1019F00057FA704700000520B8F8020800000020E0
:101A00002401002024010020B4540120FEE7704787
:101A100008B501F0F3F8BDE8084001F07FB801F027
:101A2000EFB8406870474160704700004FF0E02217
:101A3000D2F8FC3D43F08073C2F8FC3D054B064AEA
:101A4000D3F8B01F0A43C3F8B02F1A6842F001025E
:101A50001A607047001000E055CEACC5511A01EB7A
:101A60005301B1FBF3F07047014B5868704700BF5A
:101A7000001000E0704710B504460C2127F064FE0A
:101A8000204610BD036810B51B69044631B1984764
:101A9000A26863689B1A1844606010BD9847A060F4
:101AA000FBE70000024B7020024A1360DB68184716
:101AB0001000002090030020704710B50446042158
:101AC00027F042FE204610BD73B50E4E0D4614465B
:101AD000336813B9002002B070BD1B6970209847AD
:101AE0000028F7D03368702001AA0DF106015B6968
:101AF0009847BDF8043001202B60BDF80630236004
:101B0000E9E700BF900300207FB501238DF817207F
:101B10004FF47A72CDE901320DF1170200920A46B4
:101B20000146054803F0FCFC10B1034803F0DEFC5D
:101B300007B05DF804FB00BFBC0100207FB50023A7
:101B40000A464FF47A718DF817300123CDE901313F
:101B50000DF1170100910146054803F0BBFD10B1DE
:101B6000034803F0C3FC9DF8170007B05DF804FBC1
:101B7000BC010020032823D8DFE800F0020B131A71
:101B8000104B102110481A68B2FA82F2520903F081
:101B900033BB0C4B40215A68B2FA82F252090B480F
:101BA000F5E7084B80219A68B2FA82F25209F6E70B
:101BB000044B40210648DA68B2FA82F25209E6E79D
:101BC000704700BF94030020000402400008024058
:101BD00000180240032823D8DFE800F0020B131A94
:101BE000104B102110481A68003A18BF012203F068
:101BF00003BB0C4B40215A68003A18BF01220B4826
:101C0000F5E7084B80219A68003A18BF0122F6E7F1
:101C1000044B40210648DA68003A18BF0122E6E783
:101C2000704700BF940300200004024000080240F7
:101C30000018024003280FD8DFE800F00206090B65
:101C40001021064803F0DDBA40210548FAE780215B
:101C5000FBE740210348F5E7704700BF000402405E
:101C6000000802400018024008B5032813D8DFE836
:101C700000F0020A0D0F1021084803F0B7FA431EC6
:101C80005842584108BD40210548F6E78021FBE74E
:101C900040210448F1E70020F1E700BF00040240C2
:101CA000000802400018024070B5084D00240126CB
:101CB000E0B2FFF7D9FF18B12B68012B18BF2E60D7
:101CC00001340435052CF3D170BD00BF940300200E
:101CD000012380F8741080F8753070470020704739
:101CE00041640039024B18BF01211970704700BFD1
:101CF0000F52012000207047836B0BB10846184734
:101D000070474FF6FF707047406803689B6918473B
:101D10007047000038B5044601F07CF8236820467F
:101D2000D3F88850074BD4E90F12A8470023064D7B
:101D300084F84A302846FFF779FE0123256184F8AC
:101D40006C3038BD000000C0A403002001F018B8BA
:101D500001F01CB870B501F08FF810490023C1F8EC
:101D60008430BFF34F8FD1F8803043F6E074C3F373
:101D7000C900C3F34E335B0103EA0406024646EA98
:101D80008275013AC1F87452F9D2203B13F1200F49
:101D9000F2D1BFF34F8FBFF36F8F70BD00ED00E046
:101DA00001F06CB800F0C8BF01F086B901F08EB93F
:101DB00000F0CCBF10B5044616F074FD2368204631
:101DC000D3F8AC30BDE81040184715F0C3BF10B5CC
:101DD00004467C2127F0B8FC204610BD90F87730EF
:101DE0001BB1406803681B6818471846704700001D
:101DF00090F834100D4B10B590F874401A788C425E
:101E000009D03AB90A490B4A08881488108001227F
:101E10000C801A7010BD002AFCD0064A04491488B0
:101E200008880C8010800022F3E700BF08520120D0
:101E3000065201200452012070B50D46194635B9ED
:101E4000094B40F2D221094A094827F0ABFCC0E90E
:101E50000F52003A074B18BF01221A700368BDE801
:101E60007040D3F88C301847F0AD020828AE020855
:101E700076AE02080E52012008B5094B1B888B4232
:101E800003D8084B1B88934205D9074B9E21074A6C
:101E9000074827F087FC074B1980074B1A8008BDBD
:101EA0000452012006520120BBAE02081EAF0208F8
:101EB00076AE02080A5201200C520120014608B5F4
:101EC000034B186801B1012116F006FD012008BD81
:101ED00010520120034B00225A609A60024A1A6095
:101EE000704700BFA4030020B8AD02080121002202
:101EF00008B5084605F0FEFA0A4B186028B90A4BE7
:101F000028210A4A0A4827F04DFC0022042101201A
:101F100005F0B6FB074B186018B9074B2C21034A94
:101F2000F0E708BDB40300203CB0020885B0020809
:101F3000B4B00208B003002001B10208024B4FF018
:101F4000FF31186805F02CBBB4030020014B186862
:101F500005F060BBB4030020024B0021186805F0B7
:101F60001FBB00BFB4030020FFF7F0BF00230348EE
:101F700003491A46006805F0C9BB00BFB003002042
:101F80000400002013B50023074C01A91A4620685D
:101F900005F0FEFB4FF0FF33002201A9206805F099
:101FA000F7FB02B010BD00BFB003002003685B6CFC
:101FB00018470120704703689B6A18470D4B82B091
:101FC0001A6B42F400021A631A6B02F400020192C7
:101FD000019A1A6942F400021A611A6922F4000295
:101FE0001A61054B054A1A614FF08062044B9A60F2
:101FF00002B07047003802407C01002045200008F4
:1020000000E100E040F2EF3070470000054B4FF078
:1020100080620360044BC3F88820BFF34F8FBFF387
:102020006F8F7047A0B2020800E100E010B50446CF
:102030004FF45A61FFF7EAFF204627F085FB204660
:1020400010BD0000024B1B68586803685B691847A5
:102050001052012070B504460A4B0C30002625466C
:10206000602260602672667245F8203B294616F0B1
:102070006FFD04F55A63EE602435AB42FBD1204678
:1020800070BD00BFA0B2020808B50B290BD8DFE86D
:1020900001F01206100A0A0A0A08080808080120B6
:1020A00008BD0520FCE7054B6621054A054827F0D9
:1020B00079FB0020F4E70220F2E700BF43B10208F9
:1020C0005EB10208A8B1020808B50A2909D8DFE8FC
:1020D00001F010060E080808080606060600012092
:1020E00008BD054B8721054A054827F05BFB00200A
:1020F000F6E70220F4E700BF43B10208F3B102089B
:10210000A8B102082DE9F8434F7F0C4681463946B5
:10211000FFF7BAFF94F81E80054648464146FFF790
:10212000B3FF414606464846FFF7CEFFA18A628BC1
:10213000424B521A1A649A61228B521A1A61E28A2D
:10214000586342EA014220695A646268D863DA60DF
:10215000216894F81CC080294FEA0C6226D010D860
:10216000202945EA020462D0402960D004295ED0CB
:102170002A43324B474542F40032DA615BD0304AA1
:1021800040E0B1F5807F07D0B1F5007FF0D142F497
:10219000003242F0090203E042F4003242F00A0247
:1021A000DA61E2681A625E6258612AE0A4682A4332
:1021B000211D42F40032D962DA6122785E625861F0
:1021C00042B1012A21D01F4B40F211111E4A1F4873
:1021D00027F0E8FADA690120618822F47F420139A8
:1021E00022F0100242EA0122DA61144BDA6942F06D
:1021F0002002DA61DA699206FCD410229A60002883
:10220000BDD0134A1A60BDE8F8836288BCF1FF00B4
:10221000D96902F1FF3418BF012021F47F4222F076
:10222000100242EA042242F01002DA61DDE744F4CF
:102230000034DC61B7E740F20122E3E700B002407E
:10224000010201003EB2020858B20208A8B1020819
:102250000102020070B50C46897FFFF735FF174B6E
:10226000A68AE18A628B41EA06412569921B58637E
:102270005964DD631A642668E168082E0DD19A61FD
:102280001A6158620E4A207F42EA0062DA610D4A02
:1022900019625D61DD601A6070BD0022D861480975
:1022A0001A610A0A00F4FC60C1F3C40102F4784226
:1022B00002430A439A63044AEDE700BF00B00240BC
:1022C0000900010001020200010203004069704799
:1022D00090F844007047036B23B9C06A003818BFF8
:1022E000012070470120704780687047043010B5A6
:1022F0000C460FC884E80F0010BD704708B5034AAC
:1023000040F20F21024B034827F04CFAE8B20208D2
:102310001BCB020843B3020810B50446482127F03E
:1023200013FA204610BD00002DE9F0431C46436B14
:10233000ADF51F7D05460E461746002B52D00022F4
:1023400003A8DFF8A890CDE901320DF0ABFB4FF404
:10235000F4725021249024A807F0C5FA3A46314679
:1023600024A808F059FA012124A807F0C5FB02238C
:1023700024A88DF8D83007F063FCBDF898622B9B39
:10238000BDF89C729E4228BF1E46419B9F4206EBB1
:10239000460828BF1F46A89BA3EB4606479B9F42C3
:1023A0001AD9012201A924A807F093FC6B6B03EB57
:1023B000080098420ED959789A78C90009EA022291
:1023C00001F4FC610A4313F8031B42EAD10224F82A
:1023D000022BEEE73444E1E724A807F0AFFB24A882
:1023E00007F0CEFA0DF51F7DBDE8F08300F8FFFF82
:1023F0000A4A02600022C0E90522C0E90722C0E9BA
:102400000922C0E90B22C0E90D12C0E90F2280F8B1
:102410004420C0E90322C0E90122704724B6020823
:1024200020B40D4611461A46036B3BB1036C806B1A
:10243000ED1A28445DF8045B27F08EBEC06AF8E709
:10244000036B10B573B1036C826BC91A5318525CDD
:1024500098785C780004DB7840EA0420104340EA76
:10246000036010BDC36A5858FBE7036B43B1036CAC
:10247000C91A836B5A18585C527840EA0220704798
:10248000C36A585A7047000070B50446006B0D4689
:102490001646D8B1E36B934208D209230D4A68214E
:1024A0000D4884F844300D4B27F07CF90368DB6855
:1024B0009847206B3246A16B03681B69984710B997
:1024C0000D2384F84430A06B256470BDE06A084495
:1024D000FBE700BFADB3020843B302089AB302089A
:1024E0002DE9F843436904462BB9234BAD21234A18
:1024F000234827F057F908228169FFF7C5FFA16932
:10250000204643F23006043146F26437FFF798FF65
:102510000546A169A36A0D4405F108029A4224D236
:10252000636909350822204625F001010133A161C4
:102530006361FFF7A9FFD4F8188020464146FFF7F2
:1025400094FF814608F104012046FFF779FFB14569
:102550000546DED108F102012046FFF786FFB842AA
:10256000D7D1002DD5D0012004E0012300206361E4
:10257000236AA361BDE8F883EFB3020838B4020808
:1025800043B302082DE9F04F0446ADF51F7D8A469E
:102590001546816908229846FFF776FFA76920460D
:1025A000391DFFF74DFF07F1080102460646204698
:1025B000FFF76AFF636B074633B93C4B4FF4D771A3
:1025C0003B4A3C4827F0EEF8002203A8CDE901324F
:1025D0000DF068FA4FF4F4725021249024A807F00B
:1025E00082F93246394624A808F016F9012124A8B8
:1025F00007F082FA022324A88DF8D83007F020FBD8
:10260000BAF90260479BB34205D2012201A924A86E
:1026100007F05FFBF6E7BAF900904FEA4808BAF80E
:1026200004702B9B08FB06554F44BAF80260DFF894
:1026300088B03FB29F4228BF1F46BAF8063009EB68
:10264000490A1E44419B36B29E4228BF1E46479B04
:10265000B3421FD2012201A924A807F03AFB626B02
:1026600049465244B94202F1030211D212F8020C57
:1026700012F8013CC0000BEA032300F4FC600343A2
:1026800012F8030C43EAD00325F811300131E9E7D1
:102690004544DCE724A807F051FA24A807F070F9B4
:1026A00001200DF51F7DBDE8F08F00BF6BB402085F
:1026B000C1B4020843B3020800F8FFFF0129036810
:1026C00038BF0121DB6A70B50D4604469847A84221
:1026D00004D223682046DB6A984705466B1EE669EC
:1026E0001022204606EB031606F10801FFF7CCFE88
:1026F00006F110012046FFF7A3FE236A043B0344C2
:10270000C4E9055370BD00002DE9F34100210446E2
:102710004822816180F84410FFF7B6FEA7690423C0
:10272000634A39462046FFF77BFE40B10323614AE6
:10273000F52184F84430604B604827F033F807F106
:10274000080104235E4A2046A161FFF769FE30B10B
:102750000423584AFD2184F844305A4BECE707F132
:102760000C010423584A2046A161FFF759FE064692
:1027700038B105234F4A4FF4827184F84430534BEB
:10278000DAE707F110012046FFF75AFE054620B9A7
:102790004F4B4FF48571474ACEE707F114080423E5
:1027A0004C4A20464146FFF73BFE00284BD006230B
:1027B00084F844300423484A07F118012046FFF703
:1027C0002FFE002841D0072384F844304544434F6E
:1027D0000C2220462946FFF757FE05F10806042380
:1027E0003A4620463146FFF71BFE94F84430002855
:1027F0004AD0002B4AD1A36A291DAB424AD805F121
:102800000C03291D2046A3610191FFF719FE3044F6
:10281000019960622046FFF713FE06440422204619
:102820003146FFF731FE04232D4A31462046FFF79B
:10283000F7FD002839D10123E6616361A3692362B2
:1028400002B0BDE8F0810126B4E7002EBED007F14A
:1028500020012046FFF7F4FD4FF47A7307F13001B1
:10286000B0FBF3F060602046FFF7EAFD07F140019E
:10287000A0602046FFF7E4FD07F14401E060204638
:10288000FFF7DEFD2061A1E7002BB8D00A2384F812
:102890004430D5E72046FFF7D3FD08300C2205442D
:1028A00020462946FFF7F0FD97E70B23EFE700BF2F
:1028B0001BB5020839B5020820B5020843B3020867
:1028C00066B502086BB5020883B5020888B5020830
:1028D0009EB50208AAB50208AFB50208B4B5020851
:1028E000B9B50208C0E90A2100220263FFF70CBF54
:1028F00010B5002304460846E3620B6821639B6819
:102900009847A0622046BDE81040FFF7FDBEF0B436
:10291000BDF81050BDF814602AB123B1CDE90456BA
:10292000F0BCFFF701BDF0BC704700002DE9FF4788
:102930009946436904460F4690462BB92A4B7A21A3
:102940002A4A2B4826F02EFF08228169FFF79CFDBA
:10295000A669204606F1080A311DFFF771FDA36A3A
:1029600000EB0A0205469A4231D231462046FFF773
:102970007CFD43F2300398421DD1B11C2046FFF785
:1029800074FD46F26433984215D1A5B12A465146EA
:102990002046C4F818A0FFF777FD0C9B01462A4695
:1029A0002046CDF80080CDE901933B46FFF7AFFF0D
:1029B000636901336361A3692B448DB1A361A3698A
:1029C000626A013323F001039342A3610AD101201B
:1029D000236A6061A36180F0010004B0BDE8F08764
:1029E0000833EBE70020F6E7EFB30208BEB50208B4
:1029F00043B30208012070470C2070470C2303FBEF
:102A00000100083070470C2303FB010008307047B9
:102A1000012070474FF4257070474FF4257303FB76
:102A20000100083070474FF4257303FB01000830A4
:102A30007047012070471020704700EB01100830EC
:102A4000704700EB011008307047084600F0DEBE0A
:102A5000034B10B50446036014F070F8204610BD17
:102A6000CCB6020810B50446FFF7F2FF1421204649
:102A700026F06AFE204610BD034B10B504460360E5
:102A800014F05CF8204610BD98B6020810B5044654
:102A9000FFF7F2FF4FF42771204626F055FE20463F
:102AA00010BD0000034B10B50446036014F046F857
:102AB000204610BD64B6020810B50446FFF7F2FFC9
:102AC0001821204626F040FE204610BD084B10B5C8
:102AD0000446036000F53270FFF7BAFF04F12C00E2
:102AE000FFF7CAFF04F11400FFF7DCFF204610BD1A
:102AF00000B7020808B50248FFF7E8FF08BD00BFAD
:102B0000BC03002010B50446FFF7E0FF40F23C4153
:102B1000204626F019FE204610BD00002DE9F341A5
:102B200000F05AFC0024054600F05AFC23460146FA
:102B30002246284600941AF0F1FF254B254A2046EC
:102B4000254D1A6001F010F824481AF04FFF2B7839
:102B5000BFF35B8FDB0735D4284626F0F7FD88B33B
:102B60001F4C204B04F5387604F1140004F12C08B6
:102B700004F5327723606060C4F80880E76026615E
:102B800013F0DEFF184B4046636113F0D9FF174B7B
:102B90003846E36213F0D4FF154B04F53770C4F8E0
:102BA000C83201F0F3FB224604F53771304601F0DC
:102BB000E3FB304600F02AFE0E4826F011FE2846C0
:102BC00026F0D0FD0C4802B0BDE8F041FFF7A2B8F6
:102BD0006C52012018160020B803002008000020C5
:102BE000BC03002000B7020864B6020898B60208C9
:102BF000CCB60208F52A00089C150020704700009A
:102C0000014815F010B900BF9C15002070B5234E87
:102C1000234B244C3046244D2360FFF71BFA2846F3
:102C20001EF088F8214B00224FF4807120481A864C
:102C30001A6683F86C201A67DC60C3E912121D491A
:102C4000C3E919124FF080715967012183F8781098
:102C500019490B604FF4F0710180184801804FF45E
:102C600088711748C3E90422C3E90622C3E9082290
:102C7000C3E90A22C3E90E22C3E91022C3E91422E0
:102C8000C3E91622C3E9016501800E4883F83420A8
:102C900001800D490A700D4A1A6070BDFC070020C2
:102CA000E0AD0208F80700201C1600209C1500204B
:102CB0000452012001000001105201200A5201209B
:102CC000065201200C520120085201206CAF02086C
:102CD0000148FFF79BB900BFFC07002000207047A8
:102CE00081807047C1807047018170474181704782
:102CF0007047704770477047704710B4C4880368C6
:102D0000121B84885B6D091B12B25DF8044B09B27B
:102D100018474FF6FF7383814FF0FF330362136848
:102D2000C3611060704790F825201AB190F82420F4
:102D300002B1186070470000034B902283F85A23B9
:102D400083F85823704700BF00E100E0094A0A49B0
:102D5000D3680A48C3F30A03013B9BB20B80116995
:102D6000C1F30A01013901801364536B43F001037D
:102D700053637047006801409816002096160020A3
:102D8000014BD3F8AC00704700680140024B0122B0
:102D9000C3F8AC105A62704700680140124A536988
:102DA000DB0370B51ED50023C2F88430BFF34F8F0C
:102DB000D2F8803043F6E074C3F3C900C3F34E3356
:102DC0005B0103EA0406014646EA81750139C2F84F
:102DD0007452F9D2203B13F1200FF2D1BFF34F8F81
:102DE000BFF36F8F70BD00BF00ED00E07047382368
:102DF00001FB03310023435490F838300BB9036CC6
:102E000083647047704710B50446582126F09CFC37
:102E1000204610BD38B5044614F0F1FF23685D6EFE
:102E200018F076F901462046A8472368084A20464C
:102E3000D3F888500023A2F57F31A847054B064AF6
:102E40005A60064A1A649A644FF4FF225A6438BDE5
:102E500000F807C0641E00201C1E002000F40BC0F8
:102E600014F0B4BF90F84B3013B1024B01221A702A
:102E700014F0B8BF9416002014F072BF15F0DBB840
:102E800090F8252012B103685B691847704700006D
:102E900008B531B1044B40F29711044A044826F0BA
:102EA00081FC90F8390008BD0CB7020820B7020871
:102EB000ADB8020810B531B1064B40F29111064A87
:102EC000064826F06FFC406811460368BDE81040D4
:102ED0001B6B18470CB70208EFB80208ADB8020820
:102EE00008B529B1034B7A21034A044826F05AFC5D
:102EF000006908BD0CB70208A0BA0208ADB8020804
:102F000008B529B1054B8321054A064826F04AFC3D
:102F100041618160C0E9063208BD00BF0CB70208FC
:102F200058BC0208ADB8020810B5044629B1274BB9
:102F3000A421274A274826F035FC052A34D8DFE8A3
:102F400002F003292F34393E406803681B69984713
:102F500050B34FF0FF31606D04F072FA002301228C
:102F600094F83E1084F83B3084F83920A360636104
:102F700001B1226284F83E306362E36A2BB9012317
:102F8000206D84F83A3004F045FB606DBDE81040D8
:102F900004F086BA002380F8393084F83E3003E02C
:102FA000036200238360436110BD036200238360DA
:102FB0004361F2E7002380F839300123EDE7003B5D
:102FC00018BF012380F83D30EEE700BF0CB70208C0
:102FD00017BE0208ADB8020870B50446164629B1FE
:102FE000314BE721314A324826F0DCFB90F839308A
:102FF00033B1304B1B6893F8672043691344436136
:10300000E36A002B4DD0E169D4E905325343A2684D
:103010004A43934220D2236A002B42D04FF0FF3123
:10302000606D04F00DFA236A0BB10023E362E36ADA
:10303000FBB90125606D04F033FA94F839300BB90F
:10304000236A3BB1E36A2BB90123206D84F83A303F
:1030500004F0E0FA284670BD94F84C000028DDD05A
:103060009B1AB3FBF1F2994298BF02F1FF32626200
:10307000D4E7002294F83C50A3623046E262E26852
:103080002261A2680132A260336333685B699847AA
:10309000002DCED194F83D30002BCBD184F839509F
:1030A000C8E70125C9E700BF0CB70208EEBF020858
:1030B000ADB8020810520120034B4FF080629A60B5
:1030C0004FF080729A60704700E100E0084B4FF0CB
:1030D0008062C3F88820BFF34F8FBFF36F8F4FF02C
:1030E0008072C3F88820BFF34F8FBFF36F8F704794
:1030F00000E100E038B590F838303BBB0122836036
:10310000C36082634FF48072436182874FF4F07230
:103110008361C361036243628362C3620363436387
:1031200080F83E30CA864FF4887281F834300A87BE
:103130000B63826C036102F5FF24D0E9101529446A
:103140008C420AD9084B5821084A03E0084B40F248
:10315000F511084A084826F025FB026302F57F3284
:1031600084644263184638BD4CC302088CC302080D
:1031700092C10208C2C10208ADB8020810B5144CD1
:10318000236823B3134B144A1B6C11888B4213D151
:10319000124B198802F046FD226892F8663001331E
:1031A00082F86630FEF7E2FE206815F07BFB002017
:1031B000BDE81040FEF7DEBC02F034FD2068036875
:1031C0001B6A98470020BDE81040FEF703BD10BD04
:1031D0001052012000680140981600209616002029
:1031E0002DE9F74304464FF4707894F83A304FF0E5
:1031F000FF311BB9206D04F0D3F9F6E7606D04F0E0
:103200001FF9276BA36A266ABB42656808BF676B14
:1032100036B32B68314628465B6A98470023236201
:1032200084F83B30606D04F03BF92B684FF4F0728A
:103230003946CDF8008028465E694FF48873B04760
:103240004FF0FF310646606D04F0FAF894F83B3019
:10325000C3B1002384F83B30606D04F021F9C4E76A
:10326000636A002BDED02B682846D3E90993984780
:10327000616A01442846C847A368626A66621344CB
:10328000A360CFE7E7625EB12B6828469B6A984748
:103290000138E060002384F83C6084F83A30DBE7D2
:1032A0000123E360F6E70000014808B5FFF798FF47
:1032B000641E00200368042270B504465E6A002381
:1032C0000D46B0474FF0FF31606D04F0B9F838217A
:1032D00001FB0543DA6A0AB10022DA6201FB054507
:1032E000012385F83B30002385F83930606DBDE857
:1032F000704004F0D5B838B500EB810304460D46A4
:10330000114658680368DB68984729462046FFF74E
:10331000D1FF38BD70B50D461146044600EB85025D
:103320005068026896681A46B04729462046FFF75B
:10333000C1FF70BD38B5164900251648FFF758F88B
:10334000154C164B01202A46294623604FF4807302
:10335000A564A38784F84C0084F83E50C4E9105556
:10336000C4E91455C4E90155C4E90355C4E9055538
:10337000C4E90755C4E90955C4E90B55C4E90D551D
:1033800004F0B8F82065284604F018F8606538BDE8
:103390009C1600201C1E0020641E00203CC5020854
:1033A000704710B50446042126F0CEF9204610BD22
:1033B000012908B506D0022908D059B900F020FC2F
:1033C000006808BD00F01CFC4068FAE700F018FC3B
:1033D0008068F6E70020F4E70048704784C50208DB
:1033E0000620704713B5002451B1036801AA019467
:1033F0008DF803409C680DF10303A04702B010BD97
:103400000846FBE7C0897047008A7047C08870474C
:1034100080887047807A00F07F007047807AC0090A
:103420007047704710B50446082126F08DF92046F4
:1034300010BD7047704700F598730868496803C36A
:10344000704770477047416070477047064BC0F83F
:103450004801C0F84C310023C0F8503100F5A27388
:10346000C0F84031704700BF5D3600080123037289
:1034700070477047704710B441680346C2689B6844
:10348000541001EB6200D20748BF0A595DF8044BA3
:1034900048BFD358184743682BB183682BB9C0681D
:1034A00000F001007047184670470120704710B5C2
:1034B00004460C2126F048F9204610BD10B50446FC
:1034C000102126F041F9204610BD10B504464FF4F6
:1034D000AE7126F039F9204610BD08B517F018FE78
:1034E000BDE8084018F0A8BA10B50446D0F840016D
:1034F00058B10368DB68984738B1D4F840010368D5
:103500009B6898470023C4F8403110BD2DE9F14F66
:10351000D0E9555A0746A86803681B6A9847B0F572
:10352000257F05D2454BA321454A464826F03AF966
:10353000686803681B6A98470F2803D8424BA42188
:103540003F4AF2E7E86803681B6A98470B2803D8EC
:103550003E4BA5213A4AE8E7DFF8F89017F0D8FD8E
:10356000043017F013FED9F8000010B10368DB68CF
:103570009847D9F8000010B103681B689847DFF836
:10358000D880D8F8000010B103685B699847D7F875
:103590003C0110B103685B689847D8F8000010B18F
:1035A00003681B689847D7F83C0110B103689B6813
:1035B0009847E86800214FF0000B03685B6A984762
:1035C000234B0446C0F804B00360594680F808B0A5
:1035D000A86803685B6A9847064600F00FFF6868B2
:1035E000594603685B6A98470546314600F0E0FE9D
:1035F000C9F80040C7F83C51C8F80060E5B12B1D80
:10360000CAF8003030463368C5F808A0DB68F563B7
:1036100098472B6828461B6898472146304619F082
:1036200045FA236820461B699847236820465B6952
:1036300001B0BDE8F04F18472B46E1E70CC6020881
:103640009AC602089EC70208E5C7020888C8020891
:1036500098CA0208505201204C5201202DE9F14F26
:10366000D0E9555A0746A86803681B6A9847B0F521
:10367000E47F05D2454BA321454A464826F092F8FF
:10368000686803681B6A98470F2803D8424BA42137
:103690003F4AF2E7E86803681B6A98470B2803D89B
:1036A0003E4BA5213A4AE8E7DFF8F89017F030FDE5
:1036B000043017F06BFDD9F8000010B10368DB6827
:1036C0009847D9F8000010B103681B689847DFF8E5
:1036D000D880D8F8000010B103685B699847D7F824
:1036E0003C0110B103685B689847D8F8000010B13E
:1036F00003681B689847D7F83C0110B103689B68C2
:103700009847E86800214FF0000B03685B6A984710
:10371000234B0446C0F804B00360594680F808B053
:10372000A86803685B6A9847064600F0A7FE6868C9
:10373000594603685B6A98470546314600F078FEB3
:10374000C9F80040C7F83C51C8F80060E5B12B1D2E
:10375000CAF8003030463368C5F808A0DB68F56366
:1037600098472B6828461B6898472146304619F031
:103770009DF9236820461B699847236820465B69AA
:1037800001B0BDE8F04F18472B46E1E70CC6020830
:103790002BC902089EC70208E5C7020888C80208AC
:1037A00098CA0208505201204C520120F8B5044634
:1037B00017460E4617F0BCFD104B00251C6029462D
:1037C0000F4BC4E955760F4E236030680E4BC4E9A9
:1037D0005355C4E951350368C4E94F559B68984770
:1037E000284600F0C1F9336893F876200AB1D86C06
:1037F00000B998681FF085F82046F8BD5C5201209A
:103800004CCA02081052012034CA0208064BC0F804
:103810004801C0F84C310023C0F8503100F5A273C4
:10382000C0F84031704700BF5D360008064BC0F855
:103830004801C0F84C310023C0F8503100F5A273A4
:10384000C0F84031704700BF0D350008406A70472E
:10385000806A704770478B88C069DB0A0A6850F835
:1038600023001044704710B5C2B1137BB3B1547B31
:10387000D27A240204F4E0641443026A98B202EBA0
:10388000840213888B4202D192F9020010BD05D840
:103890000138043280B20028F3D1F7E70020F5E7C1
:1038A00010B504462C2125F04FFF204610BD000026
:1038B00030B58BB00446BDF860500895BDF85C503B
:1038C00007959DF8505006959DF84C5005959DF82C
:1038D000485004959DF8445003959DF8405002953A
:1038E0009DF83C500195BDF83850009518F04CFDFE
:1038F000064B20462360159BE361169B2362199BB0
:1039000063621A9BA3620BB030BD00BFBCCA020841
:103910007047000030B5164D8FB02C78BFF35B8F29
:1039200014F0010420D1284625F010FFE0B13F2318
:10393000012210490993104B10480893104B0A9428
:103940000594CDE906430423CDE903320A23CDE9EA
:103950000B440093CDE90144FFF7AAFF094825F085
:103960003FFF284625F0FEFE04480FB030BD00BFE3
:10397000BC1E0020EC3B0B9030F80208C01E00205B
:1039800080F80208113900087047000030B5174D63
:103990008FB02C78BFF35B8F14F0010422D128463E
:1039A00025F0D4FEF0B13F231E2211490993114B9B
:1039B00011480893114B0A9407930123019404932F
:1039C000CDE905330423CDE902431423CDE90B44AB
:1039D00000931823FFF76CFF094825F001FF2846E4
:1039E00025F0C0FE04480FB030BD00BFEC1E002023
:1039F000FC3B0B9034F80208F01E002084F802080B
:103A0000893900087047000030B5164D8FB02C780A
:103A1000BFF35B8F14F0010420D1284625F096FEF9
:103A2000E0B13F23012210490993104B104808933D
:103A3000104B0A940594CDE906430423CDE90332E3
:103A40002823CDE90B440093CDE90144FFF730FF73
:103A5000094825F0C5FE284625F084FE04480FB02D
:103A600030BD00BF1C1F0020A03D0B907CF8020859
:103A7000201F002088F80208053A0008002070473F
:103A8000002070470EB403B503AB002153F8042B9C
:103A9000019318F0A1FA02B05DF804EB03B070478F
:103AA0000CB407B504AB53F8042B019318F094FA47
:103AB00003B05DF804EB02B070470000436C10B532
:103AC000044673B3038F2BB9184BC521184A194804
:103AD00025F068FEC38E00EB43035B8C0BB319F03B
:103AE00049FD238F012B03D8134BCB21134AEEE75B
:103AF000E28E40F63F10531C9BB2092B194688BF3B
:103B0000A3F10A0104EB4101498C814209D10A2B3E
:103B100004EB420228BF0023508C04EB430358847B
:103B200051842046BDE8104019F026BC14CB020891
:103B30001DCB0208C8CB020812CC020820CC020818
:103B400019F0E3BB10B586B002AC84E806001A4653
:103B50000AAB214605930193099B0093089B16F03D
:103B6000DBFE06B010BD000038B518BB124B134881
:103B70001B681349B3B11A689C681A441C4402605C
:103B80005A681A440A600F4B00221A8000F038F875
:103B9000054600F033F80C4B1C600C4B1D600C4BC1
:103BA000188007E00B4B03600B4B0B600B4B1C6842
:103BB000002CE8D138BD00BF4C1F0020501F002052
:103BC000541F0020581F002060520120685201201D
:103BD00064520120D43D0B90B03D0B90783E0B9089
:103BE000044B1B6853F82100034B1B6803EB400098
:103BF000704700BF541F0020501F0020092070474D
:103C0000004870475C1F002010B5054CFFF7BEFE52
:103C10002060FFF7F9FE6060FFF77CFEA06010BD3A
:103C20005C1F0020704770477047704770477047AF
:103C30007047704730B444680346C2689B685510AB
:103C400004EB6200D20748BF625930BC48BFD3586A
:103C5000184743682BB183682BB9C06800F0010096
:103C60007047184670470120704710B50446102170
:103C700025F06AFD204610BD10B504464FF42571AD
:103C800025F062FD204610BD00F5AA70884208B5F7
:103C900005D117F03DFABDE80840FFF7B7BD08BDF4
:103CA000036870B504461B6B154698472368204689
:103CB00029465B6BBDE87040184770B504461D4649
:103CC000BDF91060FFF7ECFF2368294620469B6B87
:103CD0009847236831462046DB6BBDE870401847A3
:103CE0000022C0E90122C0E90322C0E90522C0E99F
:103CF00007224FF480728284014A0260704700BF3D
:103D0000C0CD020838B504460D462622002125F014
:103D1000D9FD2046FFF7E4FF064B204629462360E5
:103D20002B88E384FF2384F8283015F01AFC204602
:103D300038BD00BF04F302081A4B73B51B88064652
:103D4000018F8B422AD9184B1B682BB9174B6C215A
:103D5000174A184825F026FD13F81120164B1B684A
:103D600053F82250154B1868FFF73AFF2B68019063
:103D700028469B6B98472B68044601999B6C284604
:103D8000984714FB00F42B682846A4B201995B6A9B
:103D900098470444A6F8464002B070BD0023A0F83E
:103DA0004630F9E76452012060520120F2CC02084B
:103DB00034CD02086FCD0208685201206C520120F8
:103DC00010B504462622002125F07CFD2046FFF791
:103DD00087FF0A4B4FF47F0220462360084BA36203
:103DE0004FF6FF73A3850023C4E90C324FF0FF3276
:103DF0002387E363C4E9102310BD00BF0CF202085F
:103E000004C602082DE9F04F044600254FF6FF775F
:103E1000264604F16C0A04F1980904F5FA7804F5D1
:103E2000CE7B2DED048B8BB018F094FC8B4B2622AF
:103E30002946E56346F8403B304625F043FD3046D1
:103E4000FFF74EFF864B08A9504623644FF0FF331F
:103E5000A56684F86630ADF82070FFF753FF48463A
:103E600013F04AFC04F5AA73184608EE103A15F050
:103E7000B9FC4FF4807308A9C4F8C451A4F8C03148
:103E8000784BADF82070271DC4F89C3104F5E4731D
:103E9000C4E96855184609EE103AC4E96A55C4E900
:103EA0006C55C4E96E55FFF72DFF4046FFF788FFBC
:103EB00004F50F73184608EE903AFFF781FF6A4B3E
:103EC0002A4629463046C4E9A134684BC4E9A335E3
:103ED0004FF4887300934FF4F073FFF7EEFE4FF04A
:103EE0007F4331463846A366032612F03DFE2A463C
:103EF00029465046FFF7D4FE08A95046ADF8205099
:103F000015F02FFB514638464FF0020A12F02CFEF6
:103F1000D22330224846009311214FF4DF73FFF77C
:103F2000CCFE48464FF07F4113F0FDFE4846FF218E
:103F300013F0FEFE494638464FF0010912F014FE18
:103F4000022218EE100A1146FFF7AAFE08AA07A9D6
:103F500018EE100AADF82060ADF81CA015F03BFA81
:103F600018EE100AA4F88C61FFF7E6FE4FF0FF335D
:103F700018EE101A384602AEC4E9643304F5217312
:103F8000C4F87C3112F0F0FD2A232A4658460093EB
:103F9000CA21FA23FFF791FE6FF0E302294619EEDA
:103FA000100AFFF77DFE08A919EE100AADF820905F
:103FB00015F0D7FA19EE101A584612F0D5FD09225D
:103FC00040460D21FFF76CFE294B41463046C4F8B0
:103FD0002432A4F8285214F007FF04F50C7C254B7A
:103FE00096E807008CE8070008A940460893ADF85A
:103FF00024A015F093F94146584612F0B5FD092268
:1040000018EE900ACA21FFF74BFE194B18EE901AD2
:104010003046C4F86C32A4F8705214F0E5FE04F592
:104020001E7396E8070083E80700124B08A918EEF4
:10403000900AADF82490089315F070F918EE901AD4
:10404000584612F091FD3846594612F08DFD204633
:104050000BB0BDEC048BBDE8F08F00BF40CE020872
:104060009CF2020888F0020828CE0208893C000869
:10407000CCB078FF04C6020870477047704770479D
:1040800030B444680346C2689B68551004EB620074
:10409000D20748BF625930BC48BFD358184743685D
:1040A0002BB183682BB9C06800F001007047184637
:1040B00070470120704710B50446102125F044FBDD
:1040C000204610BD10B504464FF4E47125F03CFBCA
:1040D000204610BD00F1E003994270B504460D463C
:1040E00003D117F015F8FFF7A1FB04F594739D4277
:1040F00005D123682046DB6ABDE87040184770BDD3
:104100002DE9F04F04468BB0002518F023FB26461E
:10411000884B29462622E56304F16C0946F8403BAA
:10412000304625F0CFFB3046FFF7DAFD4FF0FF08B1
:10413000814B4FF6FF77262229462364484684F8B0
:10414000668004F1E00BA56604F5947AADF8207062
:1041500025F0B8FB4846FFF7C3FD784B08A9484651
:10416000E366BDF8203084F8948004F5B878A4F8AC
:10417000923015F0F6F904F198031846019315F002
:1041800031FB584615F02EFB504615F02BFB294607
:104190002622404625F096FB4046FFF7A1FD684ADF
:1041A000684B2946C4F870214FF47F02C4F8983157
:1041B0003046C4F8A4214FF0FF32A4F89C71271DAB
:1041C000C4F8A051A4F8A851C4F8AC51C4E96C25B6
:1041D0005D4AC4E96E245D4AC4E970252A46FFF7AA
:1041E0005FFD30464FF4F071FEF77EFD30464FF430
:1041F0008871FEF77BFD4FF07F4231463846A2665C
:10420000042612F0B1FC2A4629464846FFF748FD2D
:1042100008A94846ADF8205015F0A3F9494638469C
:104220004FF0050912F0A0FC019B252278211846C9
:10423000FFF736FD019B07A908AA1846ADF81C60D8
:10424000ADF8209015F0C7F8019B07221846A4F896
:10425000D020FFF771FD019B4FF0FF323846194621
:10426000C4E9352212F080FC58466F227821FFF70E
:1042700017FD08AA07A95846ADF81C60ADF82090B4
:1042800015F0A9F808235846A4F81831FFF754FD93
:104290004FF0FF3259463846C4E9472204F5DC7234
:1042A000C4F80821019212F05FFC5046B622782132
:1042B000FFF7F6FC08AA07A95046ADF81C6002AE4D
:1042C000ADF8209015F087F806235046A4F8603129
:1042D000FFF732FD4FF0FF3251463846C4E959220C
:1042E000019AC4F8502112F03FFC2A462946404664
:1042F000FFF7D6FC4FF07F4241463046C4F8A0217C
:10430000A4F8A45114F070FD04F5D67396E80700E4
:1043100083E807000B4B08A94046ADF824500893EA
:1043200014F0FCFF3846414612F01EFC20460BB04C
:10433000BDE8F08F8CCE02089CF2020804F302085C
:104340000CF2020804C6020874CE0208D540000828
:10435000704710B504464FF4AE7125F0F5F92046CC
:1043600010BD10B50446D0F8580100F012F82046F0
:10437000BDE8104016F068BF10B50446FFF716FA06
:10438000014B2046236010BDC4CE0208002202600B
:1043900070477047704704387047704710B504463F
:1043A000102125F0D1F9204610BDA0F10400F5E759
:1043B0000022C1608260044A10B502F10804203274
:1043C0000460426010BD00BF08CF020870470000C3
:1043D000034B10B504460360FFF729FC204610BDCF
:1043E00038CF020810B50446FFF7F2FF4FF42571ED
:1043F000204625F0A9F9204610BD000010B504465E
:10440000FFF700FD014B2046236010BD38CF0208A6
:10441000FFF70EBC704704387047704710B504466C
:10442000102125F091F9204610BDA0F10400F5E718
:104430000022C1608260044A10B502F108042032F3
:104440000460426010BD00BF64CF020870470000E6
:10445000034B10B504460360FFF70FFE204610BD66
:1044600094CF020810B50446FFF7F2FF4FF4E47151
:10447000204625F069F9204610BD000010B504461D
:10448000FFF73EFE014B2046236010BD94CF02088B
:10449000FFF7F4BD00B54FF4807295B04FF0807116
:1044A00003460C9205220F910121069200220191F0
:1044B0000B92139200920B48CDE90312CDE90D2225
:1044C000CDE91122102206A902924FF48002059232
:1044D0006A4601F07FFD003818BF012015B05DF875
:1044E00004FB00BF681F002000B54FF4807395B037
:1044F00041F2883217480C93062306A9069300233D
:10450000CDE90D330F930B931393CDE9113301F0E4
:104510001EFDE0B9022301224FF4800104900D48F2
:10452000CDE900331023CDE9023205236A46CDE9F7
:1045300005134FF0807306A90F9341F2883301F001
:1045400049FD003818BF012015B05DF804FB0120BB
:10455000FAE700BF681F002000B54FF4807391B0E8
:104560004FF040720E480893EB2302A902934FF4D8
:10457000406309934FF4005305930023CDE90A32B9
:104580000A220F9307926A46CDE90D33CDE9003335
:1045900001F070FD003818BF012011B05DF804FB78
:1045A000681F0020454B012145489A6B42F00202EA
:1045B000F0B59A638DB09A6B09240427002602F0A7
:1045C0000202404D0092009A9A6942F002029A61FA
:1045D0009A6922F002029A611A6B42F002021A638F
:1045E0001A6B02F002020192019A1A6B42F0020267
:1045F0001A631A6B02F002020292029A1A6B42F0DC
:1046000008021A631A6B02F008020392039A1A6BEB
:1046100042F008021A631A6B02F008020492049A2C
:104620001A6B42F010021A631A6B02F01002059224
:10463000059A1A6B42F008021A6340221B6B03F0C2
:1046400008030693069B0223CDE907230323CDE944
:1046500009130A2307A90B9300F042FC07A9184885
:10466000079709960B9400F03BFC4FF4006307A9F1
:1046700028460B94079300F033FC4FF4805307A9AE
:1046800028460B94079300F02BFC07A90E480797C8
:104690000B9400F025FC4FF4005307A928460B9417
:1046A000079300F01DFC32460F215C2000F0D8F982
:1046B0005C2000F007FA0DB0F0BD00BF00380240EA
:1046C00000040240000C024000100240F0B5494CCA
:1046D00091B0494B2046236001F026FC054610B1FD
:1046E000012011B0F0BD01462046FFF75BFF012617
:1046F00004234FF08077C4E901631023E36097FA45
:10470000A7F3B3FA83F32046013B23614FF4A06380
:10471000C4E90755C4E9053501F0B2FB0028DFD133
:104720004FF4807566230B9041F28832079002A9FE
:104730000F9008950293CDE90900CDE90D002046C0
:1047400001F005FC08B10420CBE7992341F288323F
:1047500002A92046029301F0FAFB0028F3D141F2AE
:104760008830FFF797FE0028EDD18523079041F2AE
:10477000883202A9089502930B97CDE90900CDE98B
:104780000C60CDE90E00204601F0E1FB0028DAD1F3
:1047900041F288320DF10701204601F051FD002859
:1047A000D1D1FFF7A1FE0028CDD18123F0220293C1
:1047B00092FAA2F20A219DF80730B2FA82F220465C
:1047C00003F00F0301FA02F202A9134341F2883207
:1047D0008DF8073001F0BBFB0028B4D141F28832DC
:1047E0000DF10701204601F0CFFC00283FF479AF1E
:1047F000A9E700BF681F0020001000A00F4900209B
:10480000D1F8883043F47003C1F888300C4B1A6833
:1048100042F001021A6098601A6822F0847222F451
:1048200080321A60074A5A601A6822F480221A609D
:10483000D8604FF000638B60704700BF00ED00E070
:1048400000380240103000247047002070470000FC
:10485000002337B58DF807300D4B1A780AB90122BD
:104860001A700324C5B2013CA8212846FDF766F959
:1048700014F0FF048DF807009DF80730DBB203D178
:104880009DF8070003B030BD512BECD1F8E700BF15
:10489000B61F002013B500240221C0B28DF80740D6
:1048A000FDF74CF98DF807009DF8073003F00F0372
:1048B0008DF807309DF80730052B01D98DF807409A
:1048C0009DF80720034B9DF807005A7000229A704C
:1048D00002B010BDB61F00202DE9F74F2F4D164630
:1048E00000230F46AC786A788DF80730A2424DD984
:1048F000092C4ED804EB44035B00DBB2191D03F115
:10490000030B03F1060A0533C9B25FFA8BFB5FFAAA
:104910008AFA5FFA83F8C4B2DFF884902046FDF784
:104920000DF98DF807009DF8073059462046A9F883
:104930000030FDF703F98DF8070051469DF8073068
:104940002046B9F800201B0203F4706313433B8038
:10495000A9F80030FDF7F2F88DF8070041469DF800
:1049600007302046A9F80030FDF7E8F88DF8070079
:104970009DF80730B9F800201B0203F4706313435D
:10498000A9F800303380AB780133AB7003B0BDE8D9
:10499000F08F98469A469B461946BCE7B61F002002
:1049A000B41F00200122A421C0B2FDF7ADB800223F
:1049B000A421C0B2FDF7A8B8FFF7F9BF7047000007
:1049C000024B1A780AB901221A707047B61F0020EC
:1049D000074A032008B5136843F48073136000F09E
:1049E0002DF80020FCF72AFFFCF7CCFC002008BDC6
:1049F000003C0240034A044B11681B780B441360CF
:104A0000704700BFBC1F002038000020014B186811
:104A1000704700BFBC1F002038B50446FFF7F6FF03
:104A20000546631C1EBF044B1B78E418FFF7EEFF1E
:104A3000431BA342FAD338BD3800002007490302C4
:104A4000CA6803F4E06322F4E0621204120C134318
:104A500043F0BF6343F40033CB60704700ED00E0E8
:104A6000164B30B5DC68C4F30224C4F10705231DDE
:104A7000042D28BF0425062B4FF0FF338CBF033CC9
:104A8000002403FA05F5002803FA04F321EA0501DE
:104A900022EA030201FA04F141EA02034FEA031396
:104AA000DBB206DB00F1604000F5614080F80033C6
:104AB00030BD00F00F00024A1354F9E700ED00E0AA
:104AC00014ED00E0002808DB4209012300F01F007C
:104AD00003FA00F0014B43F82200704700E100E0C8
:104AE00000280DDB4309012200F01F00203302FAE9
:104AF00000F0044A42F82300BFF34F8FBFF36F8FDB
:104B0000704700BF00E100E0BFF35F8F044B5A6ABB
:104B100022F480325A620022C3F89420704700BF0A
:104B200000ED00E0064B40F00100C3F894005A6A23
:104B300042F480325A62BFF34F8FBFF36F8F7047DA
:104B400000ED00E04378144A10B5C2F898300178BF
:104B5000E9B14368C2F89C30C37A047B1B0643EA80
:104B600004730B43817A43EAC143417B43EA8143A7
:104B7000817B43EA4143C17B43EA0143417A43EAF3
:104B80000123017A43EA4103C2F8A03010BDC2F804
:104B90009C10C2F8A010F9E700ED00E010B5044643
:104BA00008B9012010BD437F03F0FF0213B902775B
:104BB000FCF706FC022363772379E3B92368134AE1
:104BC0005A619A6822F018029A6062792368D2B911
:104BD0004FF0FF321A6100209A68616922F060028A
:104BE0000A43A1699A609A6822F080020A439A6097
:104BF00001236377D6E7D4E90212204600F008F8D3
:104C00000028E2D0CDE72269E4E700BFB71DC10468
:104C10001F2310B5013B1CD321FA03F4E407F9D597
:104C2000102A12D004D83AB1082A10D001200BE083
:104C3000182AFBD1062BF9D800684161836823F05C
:104C400018031A438260002010BD072BF3E70F2BD7
:104C5000F1E7002AEAD1EFE770B50446866DFFF769
:104C6000D5FE054694F83530022B06D0802301206E
:104C70006365002384F8343070BD23681A6822F01D
:104C800016021A605A6922F080025A61226C0AB92F
:104C9000A26C1AB11A6822F008021A601A6822F08F
:104CA00001021A6023681B6813F001030AD1E16D49
:104CB0003F2218468A40B260012284F8343084F8DA
:104CC0003520D9E7FFF7A2FE401B0528EAD92023AB
:104CD00003206365002384F8350084F83430CBE783
:104CE00010B5044630B390F8393003F0FF021BB919
:104CF00080F83820FCF77AFB2268022361680020E4
:104D000084F83930136823F440330B43A1681360EF
:104D1000536B23F007030B43E1685363136C23F4D5
:104D20007F5323F03F030B4313640123E06384F8B4
:104D3000393010BD0120FCE770477047036870B53B
:104D40005E6804461D68F20714D5E90512D51A6895
:104D500022F480721A60C26B42F00102C263012227
:104D60009A60042380F83930002380F83830436992
:104D700003B19847B20616D5AB0414D523681A6858
:104D800022F400521A6020229A60E36B43F002037F
:104D9000E363042384F83930002384F838306369EE
:104DA0000BB120469847300716D5290514D523683E
:104DB0001A6822F400621A6008229A60E36B43F0DA
:104DC0000403E363042384F83930002384F8383083
:104DD00063690BB12046984772070BD56B0509D55F
:104DE000236820461A6822F480621A6004229A60BE
:104DF000FFF7A2FFB00714D5A90512D523681A68DA
:104E000022F400721A6002229A60E36BE3630123CA
:104E100084F83930002384F8383023690BB12046F8
:104E20009847F20613D5EB0411D5236820461A687B
:104E300022F480521A6010229A60E36BE36301232C
:104E400084F83930002384F83830FFF776FF70BDDE
:104E5000F0B590F83830012B4FF002032BD080F8DA
:104E60003930012200EB01131C4F80F838200E016D
:104E70005D6AD3E9074244EA0242093C012C96BF2D
:104E800005F07F4342EA05621A430368A9B9596AEB
:104E9000012C01EA070142EA01025A6282699A6121
:104EA00003D8426A22F07F429A62012380F83930A7
:104EB000002380F838301846F0BDD969012C01EA8A
:104EC000070142EA0102DA6100EB060292691A6107
:104ED000EBD825F07F451D62E7E700BFF0FFFC003F
:104EE0002DE9F74F0023DFF8BC916C4A01240D68CF
:104EF0009C4004EA050CAC4340F0B6804D684FEA94
:104F00004308032605F0030406FA08F6671EF64375
:104F1000012F34D8876807EA060ECF6807FA08F72A
:104F200047EA0E078760476827EA0C0EC5F30017AB
:104F30009F4047EA0E074760C768022C07EA060E43
:104F40008F6807FA08F747EA0E07C76019D14FEADA
:104F5000D30A03F0070B4FF00F0E00EB8A0A4FEA5B
:104F60008B0BDAF820700EFA0BFE27EA0E0E0F6993
:104F700007FA0BF747EA0E07CAF8207001E0032C86
:104F8000DAD1076804FA08F415F4403F06EA070688
:104F900046EA0406066067D0D9F8444023F00306C9
:104FA00003F003074FF00F0E44F4804406F18046EF
:104FB000BF00C9F8444006F59C36D9F8444004F4D3
:104FC00080440194019C0EFA07F4D6F8088028EA80
:104FD000040E334CA0424ED004F58064A0424CD065
:104FE00004F58064A0424AD004F58064A04248D011
:104FF00004F58064A04246D004F58064A04244D009
:1050000004F58064A04242D004F58064A04240D000
:1050100004F58064A0423ED004F58064A0420CBF39
:1050200009240A24BC40EF0244EA0E04B4606FEA8B
:105030000C06946854BF34404CEA0404AF029460F8
:10504000D46854BF34404CEA0404AF03D4605468BD
:1050500054BF34404CEA0404ED035460146854BF58
:1050600034404CEA040414600133102B7FF43EAF4B
:1050700003B0BDE8F08F0024D4E70124D2E7022476
:10508000D0E70324CEE70424CCE70524CAE70624AE
:10509000C8E70724C6E70824C4E700BF003C014076
:1050A00000000240003802402DE9F04F00224A4C37
:1050B000DFF82C91DFF82CA1DFF82CB1012303FAE3
:1050C00002FE3EEA01030EEA01076ED122F003055B
:1050D00002F0030C0F26414B05F180454FEA8C0C82
:1050E000984205F59C3506FA0CF6D5F8088006EAD4
:1050F00008085FD003F5806398425DD003F58063B4
:1051000098425BD003F58063984259D003F58063E1
:10511000984257D0484557D0504557D0584557D05A
:1051200003F58053984255D003F5806398420CBF35
:1051300009230A2303FA0CF3434513D1236823EA16
:1051400007032360636823EA07036360E36823EAD5
:105150000703E360A36823EA0703A360AB6823EABD
:105160000603AB6003265300056802F0070C06FA3D
:1051700003F30F274FEA8C0C25EA030507FA0CF717
:10518000056022FA06F500EB85052E6A26EA070778
:105190002F62C56825EA0305C560456825EA0E0546
:1051A0004560856825EA030383600132102A85D1B2
:1051B000BDE8F08F0023BDE70123BBE70223B9E779
:1051C0000323B7E70423B5E70523B3E70623B1E7D5
:1051D0000723AFE70823ADE7003C01400000024091
:1051E0000014024000180240001C024003691942EA
:1051F00014BF0120002070470AB181617047090483
:10520000FBE7436901EA030221EA030141EA0241A3
:105210008161704703689A69910701D500229A62FB
:105220009A69D20703D49A6942F001029A617047E1
:1052300030B5039DC1F3090104682B43606843EA5C
:105240000243054A0B4342EA555223F0004320EA49
:1052500002000343636030BDFF63FF0303682DE971
:10526000F0419C6905460F46164614F0100470D0B4
:1052700000241022A046DA612B689A69920662D453
:10528000B8F1000F36D044F0040401202B689A696D
:10529000D60505D54FF4807144F001040120D96191
:1052A000510505D54FF4806144F008040120D9610F
:1052B000920550D54FF4007244F00204DA6128469A
:1052C000FFF7A8FF2A680120536823F0FF7323F437
:1052D0008B3323F4FF7323F0010353606B6C1C4387
:1052E00020236C6485F84130002385F8423085F82E
:1052F000403032E07A1CC0D0FFF788FB801BB842F8
:1053000001D8002FB8D12B68596895F842209869C8
:10531000D2B200040AD5480408D4202A06D05A681C
:1053200042F480425A60FFF771FB06462B689B6986
:105330009906A1D4FFF76AFB801B1928F6D920240F
:105340004FF0010898E7B8F1000F9CD12022DA61F4
:1053500099E720469AE70028B1D1BDE8F08170B501
:1053600004460D46164623689B699B0701D500201D
:1053700070BD324629462046FFF770FFA0B96A1C6F
:10538000F1D0FFF743FB801BA84201D8002DEAD1E2
:10539000636C43F020036364202384F841300023CE
:1053A00084F8423084F840300120E1E72DE9F041F3
:1053B000069F0446884616461D462268936938EAC9
:1053C00003030CBF01230023B34201D0002015E0EA
:1053D0006B1CF3D0FFF71AFBC01BA84201D8002DAD
:1053E000EBD1636C012043F020036364202384F835
:1053F0004130002384F8423084F84030BDE8F08129
:1054000070B504460D46164623689B699B0601D578
:10541000002070BD324629462046FFF71FFF90B995
:10542000FFF7F4FA801BA84201D8002DECD1636C81
:1054300043F020036364202384F84130002384F880
:10544000423084F840300120E3E710B504460028DC
:105450004AD090F8413003F0FF021BB980F8402099
:10546000FBF7E4FF242384F8413023681A6822F014
:1054700001021A60626822F070621A619A6822F46E
:1054800000429A60D4E90221012924D142F4004269
:105490009A605A68002042F0007242F400425A605A
:1054A000DA6822F40042DA60D4E904210A43A169EF
:1054B00042EA0122DA60D4E907210A431A601A6835
:1054C00042F001021A602023606484F841302063B6
:1054D00084F8420010BD42F4044202299A60D8D1F7
:1054E0004FF400625A60D4E70120F3E710B5044698
:1054F00098B10268242380F84130136823F0010337
:105500001360FBF7D7FF0020606484F8400084F844
:105510004100206384F8420010BD0120FCE7000038
:105520002DE9F74F994690F8413004460F46202B5D
:105530001646BDF834A0DDF8388040F0C6800C9BDC
:1055400013B1BAF1000F06D14FF400736364012068
:1055500003B0BDE8F08F90F84030012B00F0B5802B
:105560004FF0010B80F840B0FFF750FA19230546C1
:1055700000905A464FF400412046FFF717FF0028DD
:10558000E5D121235FFA89F23946606384F841301E
:10559000402384F842300C9B6064204663624C4B8D
:1055A000A4F82AA000934FF08073FFF741FE2A462B
:1055B00041462046FFF7D3FE18BBB9F1010F23681F
:1055C00015D1F6B20022802120469E624346009506
:1055D000FFF7ECFEA8B9638D9BB2FF2B15D8628D47
:1055E0004FF00073009092B22285D2B212E0320ADC
:1055F000414620469A622A46FFF7B1FE08B9236861
:10560000DFE7002384F84030A1E7FF224FF08073EA
:105610000090228539462046FFF70AFE2A46414679
:105620002046FFF79CFE002891D1636A226813F898
:10563000011B91626362638D228D013B013A9BB233
:1056400092B26385638D22859BB2B3B1AAB94346FA
:10565000802120460095FFF7A9FE00287FF477AF50
:10566000638D9BB2FF2B28D9FF224FF080730090EF
:10567000228539462046FFF7DBFD638D9BB2002B68
:10568000CCD12A4641462046FFF7BAFE00287FF4D7
:105690005EAF23682021D9615A6822F0FF7222F49C
:1056A0008B3222F4FF7222F001025A6084F841101A
:1056B00084F8400084F842004AE7628D4FF000739E
:1056C000009092B22285D2B2D3E7022040E700BF19
:1056D000002000802DE9F74F994690F841300446AC
:1056E0000F46202B1646BDF834A0DDF8388040F078
:1056F000C9800C9B13B1BAF1000F06D14FF40073AF
:105700006364012003B0BDE8F08F90F84030012BB6
:1057100000F0B8804FF0010B80F840B0FFF776F949
:105720001923054600905A464FF400412046FFF7E2
:105730003DFE0028E5D122235FFA89F239466063F5
:1057400084F84130402384F842300C9B60646362EB
:105750004D4BA4F82AA0009303462046FFF768FDAE
:105760002A4641462046FFF7FAFD20BBB9F1010F5A
:10577000236816D1F6B20022402120469E6243469D
:105780000095FFF713FEB0B9638D9BB2FF2B3F4B23
:1057900015D8628D00934FF0007392B22285D2B279
:1057A00012E0320A414620469A622A46FFF7D7FDA8
:1057B00008B92368DEE7002384F84030A1E7FF2220
:1057C00000934FF08073228539462046FFF730FD65
:1057D00043460022042120460095FFF7E7FD0028FC
:1057E0008FD123685A6A636A1A70636A228D013303
:1057F000013A6362638D92B2013B22859BB263855D
:10580000638D9BB2B3B1AAB943468021204600956F
:10581000FFF7CCFD00287FF474AF638D9BB2FF2BA4
:1058200028D9FF224FF08073009022853946204608
:10583000FFF7FEFC638D9BB2002BC9D12A4641467F
:105840002046FFF7DDFD00287FF45BAF23682021B1
:10585000D9615A6822F0FF7222F48B3222F4FF726F
:1058600022F001025A6084F8411084F8400084F864
:10587000420047E7628D4FF00073009092B222859C
:10588000D2B2D3E702203DE7002000800024008050
:1058900010B590F84130202BDCB21DD190F840308B
:1058A000012B19D0242380F8413003681A6822F0B4
:1058B00001021A601A6822F480521A601A681143B1
:1058C00019601A6842F001021A60002380F8414012
:1058D00080F84030184610BD0220FCE710B590F863
:1058E0004130202BDCB21CD190F84030012B18D075
:1058F000242380F8413003681A6822F001021A60FC
:105900001A6822F4706242EA012119601A6842F0B2
:1059100001021A60002380F8414080F840301846A8
:1059200010BD0220FCE7D2010068D1F800C084322B
:1059300083182DE9F043C6680CF101075D684FF04C
:10594000000E4C68C6F30B4605F47045D1F818906C
:1059500026445D60C568C5F30B453D4445EA0645F0
:10596000CE685D60C568C5F30A052E449D6805F4E0
:1059700070459D608D68C7680135C7F30A073D44CF
:1059800045EA06450E699D601D6925F007051D6104
:105990001E619D6991F8327091F83180C3F818E06A
:1059A00091F8305045EA096545EA082545EA07457A
:1059B0009D615D6925F0FF055D614D695D61DD6992
:1059C00025F4E06525F00705DD61D1E907573D4382
:1059D000DD619D6A4D6AC3F828E09D621EB3012E09
:1059E00023D0B51E022D22D9072E0CBF022501257A
:1059F000DE6AA4EB0C0406F0E0266C43DE6203349E
:105A00008E6AC96A6E4344EA0644DC621C6B24F465
:105A1000FF6424F007041C631963835843F00103F7
:105A20008350BDE8F0830425E2E70325E0E7022583
:105A3000DEE7000038B50446002863D090F8A130B6
:105A400003F0FF021BB980F8A020FBF74FFD0223F3
:105A500084F8A13023689A6922F070429A619969AA
:105A6000D4E901200243E0680243206902436069EF
:105A70000A4325499A619A680A409A609A6842EAFC
:105A80000042A0690243E0699A60DA680A40DA607D
:105A9000DA6842EA0042206A0243606ADA601A6900
:105AA0000A401A611A6942EA0042A06A02431A6176
:105AB0005A6911405961E16A5A6942EA0142216B0F
:105AC0000A435A61D96A94F8360001F07F4194F88C
:105AD0003550D962D96A94F834200A4342EA052243
